:040000008A158D28A8
:10000800FF00030E83018316EC000A08ED008A0145
:1000180070088312A4007108A3007208A200730874
:10002800A1008B130B130B1C99280608F300730807
:100038006B06F1007108F200711E3728EE0A0319E9
:10004800EF0AF20100306F06031D2C2804306E06FB
:10005800031D32280130EE000030EF000130C800E7
:100068000030C9009828F21E6728F2014D2866283A
:1000780080305E06F00080307002031D45281E3077
:100088005D0203184A28DD0A0319DE0A6628662875
:10009800662800306F06031D532801306E060319C9
:1000A8003B2800306F06031D5B2802306E060319DB
:1000B8003C2800306F06031D632803306E060319C1
:1000C8004B284C289828721F9828F2017E289728D8
:1000D8008030F00080305E067002031D75285D08D0
:1000E800103C03187B280130DD02031CDE0397282F
:1000F8009728972800306F06031D842801306E0664
:1001080003196B2800306F06031D8C2802306E0619
:1001180003196C2800306F06031D942803306E06FF
:1001280003197C287D2898280B100B1DC028B5289A
:10013800AA288312EC01ED018316BA0A0319BB0A37
:10014800B4288312EC0A0319ED0AB428831200308C
:100158006D06031DB1284B306C0603199D28A52890
:10016800BF28003083164506031DBC28013044060D
:1001780003199C28B4280B118B170B17831224081A
:10018800F0002308F1002208F2002108F30083168A
:0E0198006D088A006C0E8300FF0E7F0E0900BA
:0C01A60000000000000000000000080045
:1001B200243083120313FC00B530FD00FD0BDF2851
:0A01C200FC0BDF280000000008001D
:0E01CC00533083120313FD00FD0BEA280800D8
:1001DA0083120317A21BF42803138813F6280313A8
:1001EA0088170317221BFC2803130813FE2803137E
:1001FA0008170317A21A04290313881206290313DE
:10020A0088160317221A0C29031308120E2903133E
:10021A00081683166B1814298312081516298312D7
:10022A0008118815D32088110317A2191F2903134F
:10023A00881321290313881703172219272903135F
:10024A0008132929031308170317A2182F290313C0
:10025A008812312903138816031722183729031322
:10026A00081239290313081683166B183F298312BB
:10027A0008154129831208118815D320881183167D
:0C028A006B1C4929D9204A29E6200800F5
:1002960083120313F801F9011030FC00710DF80DFB
:1002A600F90D7408F8027508031C750FF902031896
:1002B60063297408F80775080318750FF907031002
:0A02C600F00DF10DFC0B51290800AA
:0802D000FA1FF21300300800D0
:1002D80083120317A0010530200203187A29200889
:1002E8001F07840020308000A00A6F2920081F07FC
:1002F80084008001A00320081F07A1000A30F40031
:10030800F5011D08F0001E08F1004B217808F000E7
:100318007908F1003030F0070317210884007008CD
:1003280080000A30F400F5011D08F0001E08F100F5
:100338004B21700803179D0071089E00003071065C
:10034800031DA82900307006031DAB29AD29A003A1
:040358007F290800F1
:10035C007B15FB1FB8290130F300F201F101F0010C
:08036C00FA0DF20CFF3008004D
:0E037400F201F101F001F801F3010030080080
:10038200831603136B10831203171D08A200ED20BE
:0603920083166B14080045
:10039800A0017208031DE1297108F2007008F1003C
:1003A800F001A0157208031DE1297108F200F1019E
:1003B800A011201672080319EF292008F302031D63
:1003C800031CF3290310F21BF729F00DF10DF20DB0
:1003D800F30BE729F3290130FC00BA21FA2902308E
:0E03E800FC00AE21FA290430FC006821080058
:1003F6008312031794019501831603136F08F20005
:100406006F08F300720884000008203A031D122AC0
:100416008312031714081504031D122A212A8312B6
:10042600031701309400003095007208840000081C
:10043600F0007308840070088000F30A7208F10067
:10044600F20A710884000008003A031D052A831683
:0804560003136F08F000080019
:10045E00412A8030831203179400542AC03094002E
:10046E00542A94309400542AD4309400542A803064
:10047E009400542A831203171408013A0319302AE0
:10048E001408023A0319352A1408033A0319382AB4
:10049E001408043A03193B2A3E2A1503F0001408E7
:1004AE00F007700894007008A200ED2083166B1000
:1004BE00EF016F0883120317160784000008031953
:1004CE00742A831603136F0883120317160784000A
:1004DE0000089D00C121EF0A602A831603136B14D6
:0204EE00080004
:1004F00083120313FA017308031D7A147708031D8E
:10050000FA147A080319C42A033A03198F2A7A18AD
:100510008C2AF61FC22AC02AF21FC02AC22A7208D9
:100520008039FA00F21376088039F6137A06031937
:100530009D2A7A080319C02AC22A77087302031970
:10054000A42A031CB82ABC2A760872020319AB2A13
:10055000031CB82ABC2A750871020319B22A031CAD
:10056000B82ABC2A740870020319C42A0318BC2ACA
:10057000FA080319C22AC02AFA080319C02AC22A93
:1005800003140800031008000314031508000800F2
:100590008312031799019A0114089B0015089C0007
:1005A00080301506F00080307002031DD92A00301B
:1005B00014020318E72A0130990000309A00140849
:1005C000003C9B001508031C013E9C019C021B087B
:1005D0009D001C089E0016089F006C2106309700A5
:1005E000003098001808003C031DF82A1708003C4A
:1005F0000318132B17081607F20001301702F0003A
:100600000030031C013E1802F10070081607840038
:100610000008F00072088400700880000130970222
:10062000031C9803F22A1608840020308000190861
:100630001A040319312B9701980117081607840033
:100640000008203A031D282B970A0319980A1D2B2E
:1006500001309702031C98031708160784002D30F9
:04066000800008000E
:10066400FB14FB1F3C2BFF30F300F200F100F00001
:08067400FA0DF20CFF30080042
:10067C00243083120313FD00FD0B422B00000800F5
:10068C007B14FB1F512BF201FA1FFF30F200F1001B
:0A069C00F000FA0DF20CFF30080028
:1006A60083120313FB01FA01F9018030F800F10C03
:1006B600F00C031C672B7408F90775080318750FEF
:1006C600FA070318FB0A0310F01F6F2B7408FA07CA
:1006D60075080318750FFB07FB0CFA0CF90CF80CE0
:1006E600031C5A2B7B08F3007A08F2007908F10004
:0606F6007808F000080086
:1006FC00B02B023083120317940001309500A03008
:10070C0096002F22C401C501BB2B3408831203179A
:10071C009400831603133508831203179500E430F5
:10072C009600C822E43083160313EF00FB2102303D
:10073C00831203179400023095005F3096002F222D
:10074C0002308312031794000D309500E4309600AC
:10075C002F22BB2B8316031300303306031DB82B3B
:0C076C000030320603197F2B8B2B080095
:1007780083120313FB017308031D77080319132C55
:1007880072087606FA007708F3077E30031CD02B30
:10079800F3020318162CD32BF302031C192C72082E
:1007A800F8007108FC007008FD00F817F617031030
:1007B800F201F101F0011830A0007D1CED2B740846
:1007C800F00775080318750FF10776080318760FF8
:1007D800F207F20CF10CF00CF80CFC0CFD0C0310F9
:1007E800A00BE12BF21BFD2BF80DF00DF10DF20D16
:1007F800F3037B1B701C0F2CF81F0F2CF00A031936
:10080800F10A0319F20A031D0F2CF20CF10CF00C7B
:10081800F30A0319162CFA1FF21300301B2C0130AF
:10082800BA211B2C023032231B2C0430AE210000CD
:020838000800B6
:10083A0083160313881108110812881208138813E3
:10084A008312881108118813081388120812D920F4
:10085A00D920D920881608168815D3208811D920BE
:10086A008815D3208811D9208815D3208811D9203A
:10087A0008128815D3208811D9208815D320881109
:10088A00881288178815D3208811D920881308164A
:10089A008815D320881108128815D3208811D920E9
:1008AA008815D320881108168815D3208811D920D5
:1008BA0008128815D3208811881708178816081671
:0E08CA008815D3208811D92083166B140800DE
:1008D80083120313F401F501F601F7010317100859
:1008E800F0001108F1001208F2001308F300782252
:1008F800013003180030F00070080319912C003003
:1009080003171006F00000301106F10080301206BF
:10091800F20000301306F3009A2C03171008F000B9
:0E0928001108F1001208F2001308F300080095
:1009360083120313FB0173080319D82C7208FA00FB
:10094600F2178E30F302F31FDB2CF309F30A08309B
:100956007302031CBE2CF300F10D7208F100F201C4
:1009660008307302031CBE2CF300F10DF10173086D
:10097600031D0310C62C73080319C62C0310F20CB2
:10098600F10CF30BC12C7B1B711CD02C031CD02C3F
:10099600F10A0319F20AF21BE72CFA1FEA2CF209F4
:1009A600F109F10A0319F20AEA2CF201F101EA2C23
:1009B6007B14FB1FED2CF201FA1FED2CFF30F20029
:1009C600F100FA0DF20CED2C0130FC00EF2C00309A
:1009D600FC00EF2CFF30FC00FC080319F32C462327
:0A09E6007108F0007208F10008002B
:1009F0000A2D80308312031790001D2DC030900007
:100A00001D2D943090001D2DD43090001D2D803070
:100A100090001D2D831203171008013A0319F92CB9
:100A20001008023A0319FE2C1008033A0319012D8D
:100A30001008043A0319042D072D1103F0001008C3
:100A4000F00770089000831603136B14700883126C
:100A50000317A200ED2083166B10831203171208F0
:0A0A6000A200ED2083166B140800BD
:100A6A00831603131208013EF000F1010318F10A7C
:100A7A006E08F400F50153230630F2007008F40002
:100A8A007108F500720803194F2DF50CF40CF513D3
:100A9A00FF3E482D0430F1007408F0007108031974
:100AAA005A2DF00D7010FF3E542D30307005F300B2
:100ABA007408F0007508F100F10CF00CF113F10C58
:100ACA00F00CF113700895000F309705730897041E
:020ADA00080012
:100ADC000030831203134906031D762D013048069E
:100AEC00031D7E2D01300317A200ED20C801C901A2
:020AFC000800F0
:0E0AFE00831603135C088A005B088200080060
:100B0C00831203137008F8007108F000F101F20170
:100B1C00F301FB01FC019630F300FA01F01F9C2D50
:100B2C00F809F009F80A0319F00AFA177008F1002D
:0C0B3C007808F000F801F201CC2108005C
:100B4800BF2D831203138715071287120713E22D8F
:100B580083128715071687120713E22D831287154C
:100B6800071687160713E22D8312871507168716AF
:100B78000717E22DE22D0313003083163506031DF7
:100B8800C72D013034060319A52D00303506031D85
:100B9800CF2D023034060319AC2D00303506031D65
:100BA800D72D033034060319B22D00303506031D46
:100BB800DF2D043034060319B82DBE2D83160030FE
:100BC8003706031DE92D00303606031DED2D83126F
:040BD8008717080073
:100BDC00831203137008F8007108F000F101F201A0
:100BEC00F301FB01FC019630F300FA017008F100EF
:0C0BFC007808F000F801F201CC2108009C
:100C0800831203139F01C0309F0483163109F0003B
:100C180070089F051F179F176E08F000F00D7010E1
:100C2800F00D7010F00D7010700883129F041F14DF
:100C38003E231F151F1D222E00001E2E1F101E08EA
:100C4800F100F00183161E08F0040030F1040800DA
:100C5800831603130711831212150C30970408002A
:0C0C680083120313950117129712080065
:100C74006E25013003179400023095004A30960027
:100C84002F2201308312031794000A30950052304A
:100C940096002F2283125D080317940003135E0845
:100CA40003179500DD309600C822DD308316031348
:100CB400EF00FB21023083120317940007309500E4
:100CC400DD3096002F220230831203179000093082
:100CD4009100DF309200F82402308312031794004D
:0C0CE4000A309500593096002F220800BD
:100CF00083160313500883125D02F1008316510816
:100D0000031C013E83125E02F20071088316B600D6
:100D10007208B7008030F000803072067002031D48
:100D2000932E7108003C03189A2E0130B800003051
:100D3000B900A72E80303706F00080307002031D06
:100D4000A32E003036020318A72EB801B9013608C9
:100D5000F0003708F100862570080317900071082D
:100D6000910072089200730893006C249B24700811
:100D70008316B2007108B300182F0130B4000030A0
:100D8000B5007E23C401C501212F0130C40000300D
:100D9000C50080303306F00080307002031DD22E73
:100DA0000A303202031CDA2E0430B4000030B500E1
:100DB0007E23172F80303306F00080307002031D31
:100DC000E32E07303202031CF62E80303306F0008B
:100DD00080307002031DEE2E0A3032020318F62E08
:100DE0000330B4000030B5007E23172F8030330667
:100DF000F00080307002031DFF2E04303202031C0D
:100E0000122F80303306F00080307002031D0A2F4D
:100E1000073032020318122F0230B4000030B50040
:100E20007E23172F0130B4000030B5007E23212F20
:100E300000303306031D1E2F003032060319BD2E6D
:100E4000C52EA425831603133408F0003508F100DD
:100E5000F00DF10D70107008C63E84000008EE0021
:100E6000352583164408450403196B2F3408F00018
:100E70003508F100F00DF10D70107008BC3E8400D3
:100E80000008F100840A0008F2003B087206031D06
:100E90004B2F71083A06031D6B2F582F0130D002DB
:100EA000031CD103692FD00A0319D10A692F692FB6
:100EB00000303906031D5E2F0030380603194E2F0F
:100EC00000303906031D662F013038060319532FF1
:080ED000572FBA01BB01080015
:100ED8006E25DB0A0319DC0A8316500883120317F0
:100EE8009400831603135108831203179500D23018
:100EF8009600C822D23083160313EF00FB2101307D
:100F080083120317940001309500253096002F2294
:100F180001308312031794000D309500D2309600EB
:100F28002F2201308312031790000F309100DF3019
:100F38009200F824013083120317940010309500B2
:080F4800323096002F22080050
:100F5000FF30831603138600870188018B170B1758
:100F60008B168B15811281110115811401140E301D
:100F70009F0483121F140608EB001D240C308312FB
:100F80000317A200ED2001300317A200ED200C3062
:100F90000317A200ED20870107148710071512140C
:100FA0009214FF308316920034262C2683164808AC
:060FB000EE0035250800EB
:100FB6007F258A110A128000840ADB0A0319DC0ADB
:080FC600F003031DDB2F0800FE
:101000008A116E258A1500305C06031D0928003000
:101010005B06031D4A288316EE018A1104268A15F1
:101020008A11EE258A153530F4005E30F5007A30ED
:10103000F6007D30F7008A11BC238A158A119B24A3
:101040008A1570088316D9007108DA00803071069D
:10105000F20080307202031D2F2812307002031834
:1010600036281230D9000030DA0046288030F000EF
:1010700080305A067002031D3F2859081E3C031891
:1010800046281E30D9000030DA0046285908D00022
:101090005A08D100013083120317940001309500E3
:1010A000343096008A112F228A15500883120317B4
:1010B0009400831603135108831203179500D2304E
:1010C00096008A11C8228A15D23083160313EF00C6
:1010D0008A11FB218A15023083120317940007300E
:1010E0009500D23096008A112F228A150230831281
:1010F0000317900009309100DF3092008A11F82424
:101100008A1502308312031794000A309500463086
:0A11100096008A112F228A150800AC
:10111A0028218A11A8278A15A0280020BA288A110E
:10112A003A268A15BA288A116C278A158A117826CE
:10113A008A15BA28BA28003083126F06031DA72819
:10114A0001306E060319922800306F06031DAF287E
:10115A0002306E060319942800306F06031DB72863
:0E116A0003306E06031998289F289128BB2891
:1012500025308400473083120313F000C130831619
:10126000DB000830DC008A11DB278A15A0308400FF
:10127000113083120313F000E7308316DB000730D0
:10128000DC008A11DB278A156C308400043083125D
:101290000313F000F8308316DB000730DC008A11FE
:1012A000DB278A15B13084001F3083120313F0004E
:1012B00008308316DB000930DC008A11DB278A1531
:0212C000080024
:100FCE004434653473346934723465346434203493
:100FDE00543465346D34703421342034203420344C
:020FEE000034CD
:040FF0000034003495
:040FF4000134003490
:1011820052346F346F346D342034543465346D34DA
:0A11920070342E343A342034003457
:04119C0043340034A4
:1011A00052346F346F346D342034543465346D34BC
:1011B0007034653472346134743475347234653427
:0411C0003A34003489
:0411C400433400347C
:0411C80000340034BB
:1011CC0044346534733469347234653464340034B3
:0E11DC00543465346D3470342E343A3400349B
:0411EA004334003456
:0411EE000034003495
:0411F2001934003478
:1011F600463461346E3420344C3465347634653488
:081206006C343A34203400344A
:02120E000034AA
:021210000F3499
:04121200013400346F
:04121600013400346B
:04121A000134003467
:04121E000034003464
:041222000034003460
:10122600043400340334003402340034013400340E
:04123600003400344C
:10123A00003400344034003480340034C034003484
:04124A00FF34003439
:02400E00492F38
:00000001FF
